{
    "_format": "hh-sol-artifact-1",
    "contractName": "DoctorAppointments",
    "sourceName": "contracts/DoctorAppointments.sol",
    "abi": [
        {
            "inputs": [],
            "stateMutability": "nonpayable",
            "type": "constructor"
        },
        {
            "anonymous": false,
            "inputs": [
                {
                    "indexed": false,
                    "internalType": "uint256",
                    "name": "appointmentId",
                    "type": "uint256"
                },
                {
                    "indexed": false,
                    "internalType": "uint256",
                    "name": "doctorId",
                    "type": "uint256"
                },
                {
                    "indexed": false,
                    "internalType": "address",
                    "name": "patient",
                    "type": "address"
                },
                {
                    "indexed": false,
                    "internalType": "uint256",
                    "name": "timestamp",
                    "type": "uint256"
                },
                {
                    "indexed": false,
                    "internalType": "uint256",
                    "name": "feeInWei",
                    "type": "uint256"
                }
            ],
            "name": "AppointmentBooked",
            "type": "event"
        },
        {
            "anonymous": false,
            "inputs": [
                {
                    "indexed": false,
                    "internalType": "uint256",
                    "name": "appointmentId",
                    "type": "uint256"
                }
            ],
            "name": "AppointmentCancelled",
            "type": "event"
        },
        {
            "anonymous": false,
            "inputs": [
                {
                    "indexed": false,
                    "internalType": "uint256",
                    "name": "doctorId",
                    "type": "uint256"
                },
                {
                    "indexed": false,
                    "internalType": "string",
                    "name": "name",
                    "type": "string"
                },
                {
                    "indexed": false,
                    "internalType": "string",
                    "name": "specialization",
                    "type": "string"
                },
                {
                    "indexed": false,
                    "internalType": "uint256",
                    "name": "feeInWei",
                    "type": "uint256"
                }
            ],
            "name": "DoctorAdded",
            "type": "event"
        },
        {
            "anonymous": false,
            "inputs": [
                {
                    "indexed": false,
                    "internalType": "uint256",
                    "name": "doctorId",
                    "type": "uint256"
                },
                {
                    "indexed": false,
                    "internalType": "uint256",
                    "name": "timestamp",
                    "type": "uint256"
                }
            ],
            "name": "TimeSlotAdded",
            "type": "event"
        },
        {
            "inputs": [
                {
                    "internalType": "string",
                    "name": "_name",
                    "type": "string"
                },
                {
                    "internalType": "string",
                    "name": "_specialization",
                    "type": "string"
                },
                {
                    "internalType": "uint256",
                    "name": "_feeInWei",
                    "type": "uint256"
                }
            ],
            "name": "addDoctor",
            "outputs": [],
            "stateMutability": "nonpayable",
            "type": "function"
        },
        {
            "inputs": [
                {
                    "internalType": "uint256",
                    "name": "_doctorId",
                    "type": "uint256"
                },
                {
                    "internalType": "uint256",
                    "name": "_timestamp",
                    "type": "uint256"
                }
            ],
            "name": "addTimeSlot",
            "outputs": [],
            "stateMutability": "nonpayable",
            "type": "function"
        },
        {
            "inputs": [
                {
                    "internalType": "uint256",
                    "name": "",
                    "type": "uint256"
                }
            ],
            "name": "appointments",
            "outputs": [
                {
                    "internalType": "uint256",
                    "name": "id",
                    "type": "uint256"
                },
                {
                    "internalType": "uint256",
                    "name": "doctorId",
                    "type": "uint256"
                },
                {
                    "internalType": "address",
                    "name": "patient",
                    "type": "address"
                },
                {
                    "internalType": "uint256",
                    "name": "timestamp",
                    "type": "uint256"
                },
                {
                    "internalType": "uint256",
                    "name": "feeInWei",
                    "type": "uint256"
                },
                {
                    "internalType": "bool",
                    "name": "isPaid",
                    "type": "bool"
                },
                {
                    "internalType": "bool",
                    "name": "isCancelled",
                    "type": "bool"
                }
            ],
            "stateMutability": "view",
            "type": "function"
        },
        {
            "inputs": [
                {
                    "internalType": "uint256",
                    "name": "",
                    "type": "uint256"
                },
                {
                    "internalType": "uint256",
                    "name": "",
                    "type": "uint256"
                }
            ],
            "name": "availableTimeSlots",
            "outputs": [
                {
                    "internalType": "bool",
                    "name": "",
                    "type": "bool"
                }
            ],
            "stateMutability": "view",
            "type": "function"
        },
        {
            "inputs": [
                {
                    "internalType": "uint256",
                    "name": "_doctorId",
                    "type": "uint256"
                },
                {
                    "internalType": "uint256",
                    "name": "_timestamp",
                    "type": "uint256"
                }
            ],
            "name": "bookAppointment",
            "outputs": [],
            "stateMutability": "payable",
            "type": "function"
        },
        {
            "inputs": [
                {
                    "internalType": "uint256",
                    "name": "_appointmentId",
                    "type": "uint256"
                }
            ],
            "name": "cancelAppointment",
            "outputs": [],
            "stateMutability": "nonpayable",
            "type": "function"
        },
        {
            "inputs": [
                {
                    "internalType": "address",
                    "name": "",
                    "type": "address"
                },
                {
                    "internalType": "uint256",
                    "name": "",
                    "type": "uint256"
                }
            ],
            "name": "doctorAppointments",
            "outputs": [
                {
                    "internalType": "uint256",
                    "name": "",
                    "type": "uint256"
                }
            ],
            "stateMutability": "view",
            "type": "function"
        },
        {
            "inputs": [
                {
                    "internalType": "uint256",
                    "name": "",
                    "type": "uint256"
                }
            ],
            "name": "doctors",
            "outputs": [
                {
                    "internalType": "uint256",
                    "name": "id",
                    "type": "uint256"
                },
                {
                    "internalType": "string",
                    "name": "name",
                    "type": "string"
                },
                {
                    "internalType": "string",
                    "name": "specialization",
                    "type": "string"
                },
                {
                    "internalType": "uint256",
                    "name": "feeInWei",
                    "type": "uint256"
                },
                {
                    "internalType": "bool",
                    "name": "isActive",
                    "type": "bool"
                }
            ],
            "stateMutability": "view",
            "type": "function"
        },
        {
            "inputs": [
                {
                    "internalType": "uint256",
                    "name": "_doctorId",
                    "type": "uint256"
                }
            ],
            "name": "getDoctorAppointments",
            "outputs": [
                {
                    "internalType": "uint256[]",
                    "name": "",
                    "type": "uint256[]"
                }
            ],
            "stateMutability": "view",
            "type": "function"
        },
        {
            "inputs": [
                {
                    "internalType": "uint256",
                    "name": "_doctorId",
                    "type": "uint256"
                },
                {
                    "internalType": "uint256[]",
                    "name": "_timestamps",
                    "type": "uint256[]"
                }
            ],
            "name": "getDoctorTimeSlots",
            "outputs": [
                {
                    "internalType": "bool[]",
                    "name": "",
                    "type": "bool[]"
                }
            ],
            "stateMutability": "view",
            "type": "function"
        },
        {
            "inputs": [],
            "name": "getPatientAppointments",
            "outputs": [
                {
                    "internalType": "uint256[]",
                    "name": "",
                    "type": "uint256[]"
                }
            ],
            "stateMutability": "view",
            "type": "function"
        },
        {
            "inputs": [],
            "name": "owner",
            "outputs": [
                {
                    "internalType": "address",
                    "name": "",
                    "type": "address"
                }
            ],
            "stateMutability": "view",
            "type": "function"
        },
        {
            "inputs": [
                {
                    "internalType": "address",
                    "name": "",
                    "type": "address"
                },
                {
                    "internalType": "uint256",
                    "name": "",
                    "type": "uint256"
                }
            ],
            "name": "patientAppointments",
            "outputs": [
                {
                    "internalType": "uint256",
                    "name": "",
                    "type": "uint256"
                }
            ],
            "stateMutability": "view",
            "type": "function"
        }
    ],
    "bytecode": "0x608060405234801561001057600080fd5b50336000806101000a81548173ffffffffffffffffffffffffffffffffffffffff021916908373ffffffffffffffffffffffffffffffffffffffff16021790555060018081905550600160028190555061239e8061006f6000396000f3fe6080604052600436106100c25760003560e01c80636efb1b841161007f578063a00c512711610059578063a00c5127146102af578063a23ba70b146102ec578063a7e6440514610317578063d0f9510914610340576100c2565b80636efb1b841461022757806379d30029146102685780638da5cb5b14610284576100c2565b806312dc9013146100c757806313030e901461010a5780635314f434146101475780635552015a1461018457806357cd46f5146101ad5780636a85de14146101ea575b600080fd5b3480156100d357600080fd5b506100ee60048036038101906100e99190611364565b610369565b60405161010197969594939291906113fc565b60405180910390f35b34801561011657600080fd5b50610131600480360381019061012c919061146b565b6103e5565b60405161013e91906114ab565b60405180910390f35b34801561015357600080fd5b5061016e6004803603810190610169919061161f565b610414565b60405161017b9190611739565b60405180910390f35b34801561019057600080fd5b506101ab60048036038101906101a6919061146b565b6104ff565b005b3480156101b957600080fd5b506101d460048036038101906101cf9190611787565b61071e565b6040516101e191906117c7565b60405180910390f35b3480156101f657600080fd5b50610211600480360381019061020c9190611787565b61074f565b60405161021e91906117c7565b60405180910390f35b34801561023357600080fd5b5061024e60048036038101906102499190611364565b610780565b60405161025f959493929190611861565b60405180910390f35b610282600480360381019061027d919061146b565b6108d3565b005b34801561029057600080fd5b50610299610c46565b6040516102a691906118c2565b60405180910390f35b3480156102bb57600080fd5b506102d660048036038101906102d19190611364565b610c6a565b6040516102e3919061199b565b60405180910390f35b3480156102f857600080fd5b50610301610de4565b60405161030e919061199b565b60405180910390f35b34801561032357600080fd5b5061033e60048036038101906103399190611364565b610e79565b005b34801561034c57600080fd5b5061036760048036038101906103629190611a72565b61118c565b005b60046020528060005260406000206000915090508060000154908060010154908060020160009054906101000a900473ffffffffffffffffffffffffffffffffffffffff16908060030154908060040154908060050160009054906101000a900460ff16908060050160019054906101000a900460ff16905087565b60076020528160005260406000206020528060005260406000206000915091509054906101000a900460ff1681565b60606000825167ffffffffffffffff811115610433576104326114dc565b5b6040519080825280602002602001820160405280156104615781602001602082028036833780820191505090505b50905060005b83518110156104f45760076000868152602001908152602001600020600085838151811061049857610497611afd565b5b6020026020010151815260200190815260200160002060009054906101000a900460ff168282815181106104cf576104ce611afd565b5b60200260200101901515908115158152505080806104ec90611b5b565b915050610467565b508091505092915050565b60008054906101000a900473ffffffffffffffffffffffffffffffffffffffff1673ffffffffffffffffffffffffffffffffffffffff163373ffffffffffffffffffffffffffffffffffffffff161461058d576040517f08c379a000000000000000000000000000000000000000000000000000000000815260040161058490611c15565b60405180910390fd5b6003600083815260200190815260200160002060040160009054906101000a900460ff166105f0576040517f08c379a00000000000000000000000000000000000000000000000000000000081526004016105e790611ca7565b60405180910390fd5b428111610632576040517f08c379a000000000000000000000000000000000000000000000000000000000815260040161062990611d13565b60405180910390fd5b60076000838152602001908152602001600020600082815260200190815260200160002060009054906101000a900460ff16156106a4576040517f08c379a000000000000000000000000000000000000000000000000000000000815260040161069b90611d7f565b60405180910390fd5b600160076000848152602001908152602001600020600083815260200190815260200160002060006101000a81548160ff0219169083151502179055507f1d2d709da0fb6a0fa16464fa887bffbae466a1a58431cd00837c2f3b29e4bc688282604051610712929190611d9f565b60405180910390a15050565b6005602052816000526040600020818154811061073a57600080fd5b90600052602060002001600091509150505481565b6006602052816000526040600020818154811061076b57600080fd5b90600052602060002001600091509150505481565b60036020528060005260406000206000915090508060000154908060010180546107a990611df7565b80601f01602080910402602001604051908101604052809291908181526020018280546107d590611df7565b80156108225780601f106107f757610100808354040283529160200191610822565b820191906000526020600020905b81548152906001019060200180831161080557829003601f168201915b50505050509080600201805461083790611df7565b80601f016020809104026020016040519081016040528092919081815260200182805461086390611df7565b80156108b05780601f10610885576101008083540402835291602001916108b0565b820191906000526020600020905b81548152906001019060200180831161089357829003601f168201915b5050505050908060030154908060040160009054906101000a900460ff16905085565b6003600083815260200190815260200160002060040160009054906101000a900460ff16610936576040517f08c379a000000000000000000000000000000000000000000000000000000000815260040161092d90611ca7565b60405180910390fd5b60076000838152602001908152602001600020600082815260200190815260200160002060009054906101000a900460ff166109a7576040517f08c379a000000000000000000000000000000000000000000000000000000000815260040161099e90611e74565b60405180910390fd5b6003600083815260200190815260200160002060030154341015610a00576040517f08c379a00000000000000000000000000000000000000000000000000000000081526004016109f790611ee0565b60405180910390fd5b600060076000848152602001908152602001600020600083815260200190815260200160002060006101000a81548160ff021916908315150217905550600060025490506040518060e001604052808281526020018481526020013373ffffffffffffffffffffffffffffffffffffffff168152602001838152602001600360008681526020019081526020016000206003015481526020016001151581526020016000151581525060046000838152602001908152602001600020600082015181600001556020820151816001015560408201518160020160006101000a81548173ffffffffffffffffffffffffffffffffffffffff021916908373ffffffffffffffffffffffffffffffffffffffff160217905550606082015181600301556080820151816004015560a08201518160050160006101000a81548160ff02191690831515021790555060c08201518160050160016101000a81548160ff021916908315150217905550905050600660003373ffffffffffffffffffffffffffffffffffffffff1673ffffffffffffffffffffffffffffffffffffffff1681526020019081526020016000208190806001815401808255809150506001900390600052602060002001600090919091909150557f93325c9482a14f75a3c5b5e42c53c39f117c928fb0024adc7e848ba8ff5dabdf818433856003600089815260200190815260200160002060030154604051610c21959493929190611f00565b60405180910390a160026000815480929190610c3c90611b5b565b9190505550505050565b60008054906101000a900473ffffffffffffffffffffffffffffffffffffffff1681565b6060600080600190505b600254811015610ceb57836004600083815260200190815260200160002060010154148015610cc457506004600082815260200190815260200160002060050160019054906101000a900460ff16155b15610cd8578180610cd490611b5b565b9250505b8080610ce390611b5b565b915050610c74565b5060008167ffffffffffffffff811115610d0857610d076114dc565b5b604051908082528060200260200182016040528015610d365781602001602082028036833780820191505090505b509050600080600190505b600254811015610dd857856004600083815260200190815260200160002060010154148015610d9157506004600082815260200190815260200160002060050160019054906101000a900460ff16155b15610dc55780838381518110610daa57610da9611afd565b5b6020026020010181815250508180610dc190611b5b565b9250505b8080610dd090611b5b565b915050610d41565b50819350505050919050565b6060600660003373ffffffffffffffffffffffffffffffffffffffff1673ffffffffffffffffffffffffffffffffffffffff168152602001908152602001600020805480602002602001604051908101604052809291908181526020018280548015610e6f57602002820191906000526020600020905b815481526020019060010190808311610e5b575b5050505050905090565b60006004600083815260200190815260200160002090506000816000015403610ed7576040517f08c379a0000000000000000000000000000000000000000000000000000000008152600401610ece90611f9f565b60405180910390fd5b8060020160009054906101000a900473ffffffffffffffffffffffffffffffffffffffff1673ffffffffffffffffffffffffffffffffffffffff163373ffffffffffffffffffffffffffffffffffffffff161480610f80575060008054906101000a900473ffffffffffffffffffffffffffffffffffffffff1673ffffffffffffffffffffffffffffffffffffffff163373ffffffffffffffffffffffffffffffffffffffff16145b610fbf576040517f08c379a0000000000000000000000000000000000000000000000000000000008152600401610fb69061200b565b60405180910390fd5b8060050160019054906101000a900460ff1615611011576040517f08c379a000000000000000000000000000000000000000000000000000000000815260040161100890612077565b60405180910390fd5b60018160050160016101000a81548160ff0219169083151502179055506001600760008360010154815260200190815260200160002060008360030154815260200190815260200160002060006101000a81548160ff02191690831515021790555060008054906101000a900473ffffffffffffffffffffffffffffffffffffffff1673ffffffffffffffffffffffffffffffffffffffff163373ffffffffffffffffffffffffffffffffffffffff161480156110dc57508060050160009054906101000a900460ff165b15611151578060020160009054906101000a900473ffffffffffffffffffffffffffffffffffffffff1673ffffffffffffffffffffffffffffffffffffffff166108fc82600401549081150290604051600060405180830381858888f1935050505015801561114f573d6000803e3d6000fd5b505b7f4b0e2b6047be1a990287b0818b6f06236be270f55a306ec58398d8b9aa7f6e738260405161118091906117c7565b60405180910390a15050565b60008054906101000a900473ffffffffffffffffffffffffffffffffffffffff1673ffffffffffffffffffffffffffffffffffffffff163373ffffffffffffffffffffffffffffffffffffffff161461121a576040517f08c379a000000000000000000000000000000000000000000000000000000000815260040161121190611c15565b60405180910390fd5b6040518060a0016040528060015481526020018481526020018381526020018281526020016001151581525060036000600154815260200190815260200160002060008201518160000155602082015181600101908161127a9190612243565b5060408201518160020190816112909190612243565b506060820151816003015560808201518160040160006101000a81548160ff0219169083151502179055509050507f9a14099dbc84b770c2e7ca224e33dfd3455b0b5e7b72b8db0a5be1afb35439516001548484846040516112f59493929190612315565b60405180910390a16001600081548092919061131090611b5b565b9190505550505050565b6000604051905090565b600080fd5b600080fd5b6000819050919050565b6113418161132e565b811461134c57600080fd5b50565b60008135905061135e81611338565b92915050565b60006020828403121561137a57611379611324565b5b60006113888482850161134f565b91505092915050565b61139a8161132e565b82525050565b600073ffffffffffffffffffffffffffffffffffffffff82169050919050565b60006113cb826113a0565b9050919050565b6113db816113c0565b82525050565b60008115159050919050565b6113f6816113e1565b82525050565b600060e082019050611411600083018a611391565b61141e6020830189611391565b61142b60408301886113d2565b6114386060830187611391565b6114456080830186611391565b61145260a08301856113ed565b61145f60c08301846113ed565b98975050505050505050565b6000806040838503121561148257611481611324565b5b60006114908582860161134f565b92505060206114a18582860161134f565b9150509250929050565b60006020820190506114c060008301846113ed565b92915050565b600080fd5b6000601f19601f8301169050919050565b7f4e487b7100000000000000000000000000000000000000000000000000000000600052604160045260246000fd5b611514826114cb565b810181811067ffffffffffffffff82111715611533576115326114dc565b5b80604052505050565b600061154661131a565b9050611552828261150b565b919050565b600067ffffffffffffffff821115611572576115716114dc565b5b602082029050602081019050919050565b600080fd5b600061159b61159684611557565b61153c565b905080838252602082019050602084028301858111156115be576115bd611583565b5b835b818110156115e757806115d3888261134f565b8452602084019350506020810190506115c0565b5050509392505050565b600082601f830112611606576116056114c6565b5b8135611616848260208601611588565b91505092915050565b6000806040838503121561163657611635611324565b5b60006116448582860161134f565b925050602083013567ffffffffffffffff81111561166557611664611329565b5b611671858286016115f1565b9150509250929050565b600081519050919050565b600082825260208201905092915050565b6000819050602082019050919050565b6116b0816113e1565b82525050565b60006116c283836116a7565b60208301905092915050565b6000602082019050919050565b60006116e68261167b565b6116f08185611686565b93506116fb83611697565b8060005b8381101561172c57815161171388826116b6565b975061171e836116ce565b9250506001810190506116ff565b5085935050505092915050565b6000602082019050818103600083015261175381846116db565b905092915050565b611764816113c0565b811461176f57600080fd5b50565b6000813590506117818161175b565b92915050565b6000806040838503121561179e5761179d611324565b5b60006117ac85828601611772565b92505060206117bd8582860161134f565b9150509250929050565b60006020820190506117dc6000830184611391565b92915050565b600081519050919050565b600082825260208201905092915050565b60005b8381101561181c578082015181840152602081019050611801565b60008484015250505050565b6000611833826117e2565b61183d81856117ed565b935061184d8185602086016117fe565b611856816114cb565b840191505092915050565b600060a0820190506118766000830188611391565b81810360208301526118888187611828565b9050818103604083015261189c8186611828565b90506118ab6060830185611391565b6118b860808301846113ed565b9695505050505050565b60006020820190506118d760008301846113d2565b92915050565b600081519050919050565b600082825260208201905092915050565b6000819050602082019050919050565b6119128161132e565b82525050565b60006119248383611909565b60208301905092915050565b6000602082019050919050565b6000611948826118dd565b61195281856118e8565b935061195d836118f9565b8060005b8381101561198e5781516119758882611918565b975061198083611930565b925050600181019050611961565b5085935050505092915050565b600060208201905081810360008301526119b5818461193d565b905092915050565b600080fd5b600067ffffffffffffffff8211156119dd576119dc6114dc565b5b6119e6826114cb565b9050602081019050919050565b82818337600083830152505050565b6000611a15611a10846119c2565b61153c565b905082815260208101848484011115611a3157611a306119bd565b5b611a3c8482856119f3565b509392505050565b600082601f830112611a5957611a586114c6565b5b8135611a69848260208601611a02565b91505092915050565b600080600060608486031215611a8b57611a8a611324565b5b600084013567ffffffffffffffff811115611aa957611aa8611329565b5b611ab586828701611a44565b935050602084013567ffffffffffffffff811115611ad657611ad5611329565b5b611ae286828701611a44565b9250506040611af38682870161134f565b9150509250925092565b7f4e487b7100000000000000000000000000000000000000000000000000000000600052603260045260246000fd5b7f4e487b7100000000000000000000000000000000000000000000000000000000600052601160045260246000fd5b6000611b668261132e565b91507fffffffffffffffffffffffffffffffffffffffffffffffffffffffffffffffff8203611b9857611b97611b2c565b5b600182019050919050565b7f4f6e6c79206f776e65722063616e2063616c6c20746869732066756e6374696f60008201527f6e00000000000000000000000000000000000000000000000000000000000000602082015250565b6000611bff6021836117ed565b9150611c0a82611ba3565b604082019050919050565b60006020820190508181036000830152611c2e81611bf2565b9050919050565b7f446f63746f7220646f6573206e6f74206578697374206f7220697320696e616360008201527f7469766500000000000000000000000000000000000000000000000000000000602082015250565b6000611c916024836117ed565b9150611c9c82611c35565b604082019050919050565b60006020820190508181036000830152611cc081611c84565b9050919050565b7f54696d6520736c6f74206d75737420626520696e207468652066757475726500600082015250565b6000611cfd601f836117ed565b9150611d0882611cc7565b602082019050919050565b60006020820190508181036000830152611d2c81611cf0565b9050919050565b7f54696d6520736c6f7420616c7265616479206578697374730000000000000000600082015250565b6000611d696018836117ed565b9150611d7482611d33565b602082019050919050565b60006020820190508181036000830152611d9881611d5c565b9050919050565b6000604082019050611db46000830185611391565b611dc16020830184611391565b9392505050565b7f4e487b7100000000000000000000000000000000000000000000000000000000600052602260045260246000fd5b60006002820490506001821680611e0f57607f821691505b602082108103611e2257611e21611dc8565b5b50919050565b7f54696d6520736c6f74206973206e6f7420617661696c61626c65000000000000600082015250565b6000611e5e601a836117ed565b9150611e6982611e28565b602082019050919050565b60006020820190508181036000830152611e8d81611e51565b9050919050565b7f496e73756666696369656e74207061796d656e74000000000000000000000000600082015250565b6000611eca6014836117ed565b9150611ed582611e94565b602082019050919050565b60006020820190508181036000830152611ef981611ebd565b9050919050565b600060a082019050611f156000830188611391565b611f226020830187611391565b611f2f60408301866113d2565b611f3c6060830185611391565b611f496080830184611391565b9695505050505050565b7f4170706f696e746d656e7420646f6573206e6f74206578697374000000000000600082015250565b6000611f89601a836117ed565b9150611f9482611f53565b602082019050919050565b60006020820190508181036000830152611fb881611f7c565b9050919050565b7f4e6f7420617574686f72697a656420746f2063616e63656c0000000000000000600082015250565b6000611ff56018836117ed565b915061200082611fbf565b602082019050919050565b6000602082019050818103600083015261202481611fe8565b9050919050565b7f4170706f696e746d656e7420616c72656164792063616e63656c6c6564000000600082015250565b6000612061601d836117ed565b915061206c8261202b565b602082019050919050565b6000602082019050818103600083015261209081612054565b9050919050565b60008190508160005260206000209050919050565b60006020601f8301049050919050565b600082821b905092915050565b6000600883026120f97fffffffffffffffffffffffffffffffffffffffffffffffffffffffffffffffff826120bc565b61210386836120bc565b95508019841693508086168417925050509392505050565b6000819050919050565b600061214061213b6121368461132e565b61211b565b61132e565b9050919050565b6000819050919050565b61215a83612125565b61216e61216682612147565b8484546120c9565b825550505050565b600090565b612183612176565b61218e818484612151565b505050565b5b818110156121b2576121a760008261217b565b600181019050612194565b5050565b601f8211156121f7576121c881612097565b6121d1846120ac565b810160208510156121e0578190505b6121f46121ec856120ac565b830182612193565b50505b505050565b600082821c905092915050565b600061221a600019846008026121fc565b1980831691505092915050565b60006122338383612209565b9150826002028217905092915050565b61224c826117e2565b67ffffffffffffffff811115612265576122646114dc565b5b61226f8254611df7565b61227a8282856121b6565b600060209050601f8311600181146122ad576000841561229b578287015190505b6122a58582612227565b86555061230d565b601f1984166122bb86612097565b60005b828110156122e3578489015182556001820191506020850194506020810190506122be565b8683101561230057848901516122fc601f891682612209565b8355505b6001600288020188555050505b505050505050565b600060808201905061232a6000830187611391565b818103602083015261233c8186611828565b905081810360408301526123508185611828565b905061235f6060830184611391565b9594505050505056fea26469706673582212204afbfe68ba5d0b87e0fa4cb62a1ff1aec4b247bd3d3330390c754d049a29a4da64736f6c63430008130033",
    "linkReferences": {},
    "deployedLinkReferences": {}
}