{
    "_format": "hh-sol-artifact-1",
    "contractName": "HealthStaking",
    "sourceName": "contracts/HealthStaking.sol",
    "abi": [
        {
            "anonymous": false,
            "inputs": [
                {
                    "indexed": true,
                    "internalType": "address",
                    "name": "user",
                    "type": "address"
                },
                {
                    "indexed": false,
                    "internalType": "uint256",
                    "name": "amount",
                    "type": "uint256"
                }
            ],
            "name": "Staked",
            "type": "event"
        },
        {
            "anonymous": false,
            "inputs": [
                {
                    "indexed": true,
                    "internalType": "address",
                    "name": "user",
                    "type": "address"
                },
                {
                    "indexed": false,
                    "internalType": "uint256",
                    "name": "amount",
                    "type": "uint256"
                },
                {
                    "indexed": false,
                    "internalType": "uint256",
                    "name": "rewards",
                    "type": "uint256"
                }
            ],
            "name": "Withdrawn",
            "type": "event"
        },
        {
            "inputs": [
                {
                    "internalType": "address",
                    "name": "user",
                    "type": "address"
                }
            ],
            "name": "calculateRewards",
            "outputs": [
                {
                    "internalType": "uint256",
                    "name": "",
                    "type": "uint256"
                }
            ],
            "stateMutability": "nonpayable",
            "type": "function"
        },
        {
            "inputs": [
                {
                    "internalType": "address",
                    "name": "user",
                    "type": "address"
                }
            ],
            "name": "getStakeInfo",
            "outputs": [
                {
                    "internalType": "uint256",
                    "name": "amount",
                    "type": "uint256"
                },
                {
                    "internalType": "uint256",
                    "name": "timestamp",
                    "type": "uint256"
                },
                {
                    "internalType": "uint256",
                    "name": "rewards",
                    "type": "uint256"
                },
                {
                    "internalType": "bool",
                    "name": "isActive",
                    "type": "bool"
                }
            ],
            "stateMutability": "view",
            "type": "function"
        },
        {
            "inputs": [],
            "name": "rewardsRate",
            "outputs": [
                {
                    "internalType": "uint256",
                    "name": "",
                    "type": "uint256"
                }
            ],
            "stateMutability": "view",
            "type": "function"
        },
        {
            "inputs": [],
            "name": "stake",
            "outputs": [],
            "stateMutability": "payable",
            "type": "function"
        },
        {
            "inputs": [
                {
                    "internalType": "address",
                    "name": "",
                    "type": "address"
                }
            ],
            "name": "stakes",
            "outputs": [
                {
                    "internalType": "uint256",
                    "name": "amount",
                    "type": "uint256"
                },
                {
                    "internalType": "uint256",
                    "name": "timestamp",
                    "type": "uint256"
                },
                {
                    "internalType": "uint256",
                    "name": "rewards",
                    "type": "uint256"
                },
                {
                    "internalType": "bool",
                    "name": "isActive",
                    "type": "bool"
                }
            ],
            "stateMutability": "view",
            "type": "function"
        },
        {
            "inputs": [],
            "name": "withdraw",
            "outputs": [],
            "stateMutability": "nonpayable",
            "type": "function"
        }
    ],
    "bytecode": "0x60806040526101f460015534801561001657600080fd5b50610a32806100266000396000f3fe6080604052600436106100555760003560e01c806316934fc41461005a5780633a4b66f11461009a5780633ccfd60b146100a4578063523bc7d5146100bb57806364ab8675146100e6578063c345315314610123575b600080fd5b34801561006657600080fd5b50610081600480360381019061007c91906106f0565b610163565b6040516100919493929190610751565b60405180910390f35b6100a26101a0565b005b3480156100b057600080fd5b506100b9610393565b005b3480156100c757600080fd5b506100d061051a565b6040516100dd9190610796565b60405180910390f35b3480156100f257600080fd5b5061010d600480360381019061010891906106f0565b610520565b60405161011a9190610796565b60405180910390f35b34801561012f57600080fd5b5061014a600480360381019061014591906106f0565b6105dd565b60405161015a9493929190610751565b60405180910390f35b60006020528060005260406000206000915090508060000154908060010154908060020154908060030160009054906101000a900460ff16905084565b600034116101e3576040517f08c379a00000000000000000000000000000000000000000000000000000000081526004016101da9061080e565b60405180910390fd5b6000803373ffffffffffffffffffffffffffffffffffffffff1673ffffffffffffffffffffffffffffffffffffffff16815260200190815260200160002060030160009054906101000a900460ff161561029e5761024033610520565b50346000803373ffffffffffffffffffffffffffffffffffffffff1673ffffffffffffffffffffffffffffffffffffffff1681526020019081526020016000206000016000828254610292919061085d565b92505081905550610343565b604051806080016040528034815260200142815260200160008152602001600115158152506000803373ffffffffffffffffffffffffffffffffffffffff1673ffffffffffffffffffffffffffffffffffffffff16815260200190815260200160002060008201518160000155602082015181600101556040820151816002015560608201518160030160006101000a81548160ff0219169083151502179055509050505b3373ffffffffffffffffffffffffffffffffffffffff167f9e71bc8eea02a63969f509818f2dafb9254532904319f9dbda79b67bd34a5f3d346040516103899190610796565b60405180910390a2565b60008060003373ffffffffffffffffffffffffffffffffffffffff1673ffffffffffffffffffffffffffffffffffffffff16815260200190815260200160002090508060030160009054906101000a900460ff16610426576040517f08c379a000000000000000000000000000000000000000000000000000000000815260040161041d906108dd565b60405180910390fd5b61042f33610520565b50600081600001549050600082600201549050600083600001819055506000836002018190555060008360030160006101000a81548160ff0219169083151502179055503373ffffffffffffffffffffffffffffffffffffffff166108fc8284610499919061085d565b9081150290604051600060405180830381858888f193505050501580156104c4573d6000803e3d6000fd5b503373ffffffffffffffffffffffffffffffffffffffff167f92ccf450a286a957af52509bc1c9939d1a6a481783e142e41e2499f0bb66ebc6838360405161050d9291906108fd565b60405180910390a2505050565b60015481565b6000806000808473ffffffffffffffffffffffffffffffffffffffff1673ffffffffffffffffffffffffffffffffffffffff16815260200190815260200160002090508060030160009054906101000a900460ff166105835760009150506105d8565b60008160010154426105959190610926565b9050600064496cebb8008260015485600001546105b2919061095a565b6105bc919061095a565b6105c691906109cb565b90508083600201819055508093505050505b919050565b60008060008060008060008773ffffffffffffffffffffffffffffffffffffffff1673ffffffffffffffffffffffffffffffffffffffff1681526020019081526020016000206040518060800160405290816000820154815260200160018201548152602001600282015481526020016003820160009054906101000a900460ff161515151581525050905080600001518160200151826040015183606001519450945094509450509193509193565b600080fd5b600073ffffffffffffffffffffffffffffffffffffffff82169050919050565b60006106bd82610692565b9050919050565b6106cd816106b2565b81146106d857600080fd5b50565b6000813590506106ea816106c4565b92915050565b6000602082840312156107065761070561068d565b5b6000610714848285016106db565b91505092915050565b6000819050919050565b6107308161071d565b82525050565b60008115159050919050565b61074b81610736565b82525050565b60006080820190506107666000830187610727565b6107736020830186610727565b6107806040830185610727565b61078d6060830184610742565b95945050505050565b60006020820190506107ab6000830184610727565b92915050565b600082825260208201905092915050565b7f43616e6e6f74207374616b652030204554480000000000000000000000000000600082015250565b60006107f86012836107b1565b9150610803826107c2565b602082019050919050565b60006020820190508181036000830152610827816107eb565b9050919050565b7f4e487b7100000000000000000000000000000000000000000000000000000000600052601160045260246000fd5b60006108688261071d565b91506108738361071d565b925082820190508082111561088b5761088a61082e565b5b92915050565b7f4e6f20616374697665207374616b6520666f756e640000000000000000000000600082015250565b60006108c76015836107b1565b91506108d282610891565b602082019050919050565b600060208201905081810360008301526108f6816108ba565b9050919050565b60006040820190506109126000830185610727565b61091f6020830184610727565b9392505050565b60006109318261071d565b915061093c8361071d565b92508282039050818111156109545761095361082e565b5b92915050565b60006109658261071d565b91506109708361071d565b925082820261097e8161071d565b915082820484148315176109955761099461082e565b5b5092915050565b7f4e487b7100000000000000000000000000000000000000000000000000000000600052601260045260246000fd5b60006109d68261071d565b91506109e18361071d565b9250826109f1576109f061099c565b5b82820490509291505056fea264697066735822122040f0ee6c18de705866f5d3cd0202076e4806240b1e291ea5d83e69274236311b64736f6c63430008130033",
    "linkReferences": {},
    "deployedLinkReferences": {}
}